:020000040800F2
:1000000000500020D53C0008993B0008A13B0008A7
:1000100000000000000000000000000000000000E0
:10002000000000000000000000000000A93B0008E4
:100030000000000000000000B33B0008BD3B0008CA
:10004000253D0008253D0008253D0008253D000808
:10005000253D0008253D0008253D0008253D0008F8
:1000600000000000CD3B0008253D0008253D0008AC
:10007000253D0008253D0008E53B0008253D00081A
:10008000253D0008FD3B0008213C00080000000061
:10009000253D0008253D0008253D0008253D0008B8
:1000A000253D0008253D0008253D0008453C000889
:1000B000253D0008253D000800000000000000006C
:1000C00010B5064C2378002B07D1054B002B02D02E
:1000D000044800E000BF0123237010BD6000002031
:1000E00000000000C49E0008044B10B5002B03D094
:1000F0000349044800E000BF10BDC04600000000F6
:1001000064000020C49E000803B471464908400002
:100110004900095E49008E4403BC70470022430831
:100120008B4274D303098B425FD3030A8B4244D3BF
:10013000030B8B4228D3030C8B420DD3FF22090201
:1001400012BA030C8B4202D31212090265D0030BC0
:100150008B4219D300E0090AC30B8B4201D3CB03B6
:10016000C01A5241830B8B4201D38B03C01A5241F8
:10017000430B8B4201D34B03C01A5241030B8B42FA
:1001800001D30B03C01A5241C30A8B4201D3CB02E5
:10019000C01A5241830A8B4201D38B02C01A5241CA
:1001A000430A8B4201D34B02C01A5241030A8B42CD
:1001B00001D30B02C01A5241CDD2C3098B4201D3E5
:1001C000CB01C01A524183098B4201D38B01C01A63
:1001D000524143098B4201D34B01C01A52410309DA
:1001E0008B4201D30B01C01A5241C3088B4201D389
:1001F000CB00C01A524183088B4201D38B00C01A36
:10020000524143088B4201D34B00C01A5241411A5C
:1002100000D20146524110467047FFE701B5002069
:1002200000F006F802BDC0460029F7D076E7704717
:100230007047C046844608006146FFE71FB500F0DE
:1002400087FC002801D40021C8421FBD10B500F072
:1002500007FC4042013010BD10B500F079FC0028C9
:1002600001DB002010BD012010BDC04610B500F01C
:100270006FFC002801DD002010BD012010BDC0462C
:1002800010B500F015FC002801DC002010BD012095
:1002900010BDC04610B500F00BFC002801DA0020AC
:1002A00010BD012010BDC046002B11D1002A0FD176
:1002B000002900D1002802D00021C943080007B45A
:1002C000024802A14018029003BDC04665FFFFFF2F
:1002D00003B4684601B5029800F04CF8019B9E46B5
:1002E00002B00CBC7047C046F0B5CE469946030C30
:1002F0009C46130447461B0C1D000E006146040477
:10030000240C80B50700100C4B4365434143604308
:100310002C0CC01824188C46A34203D980235B02FE
:100320009846C444494679435643230C2D042D0C6A
:100330008919634424046019C918C0BCB946B04681
:10034000F0BDC0469E2110B5C905041CFFF7A2FFF1
:10035000002803D1201C00F02BFF10BD9E21201C83
:10036000C90500F081FD00F023FF80231B069C4699
:100370006044F2E7F0B557464E464546DE46E0B5E6
:1003800004000D009246994683B08B4230D82DD0A0
:100390004946504602F0B4FD29000600200002F054
:1003A000AFFD331A9846203B34D49B4653465A46F9
:1003B000934042461F00534693401E00AF423BD835
:1003C000AF4200D179E05B46A41BBD41002B00DAAF
:1003D00076E0002200230092019301235A469340C5
:1003E0000193012342469340009329E08242CFD9F2
:1003F00000220023009201930C9B002B01D01C6073
:100400005D600098019903B0F0BCBB46B246A946B6
:10041000A046F0BD42469B4620239B1A5246DA4036
:10042000414613004A468A40170042461F4353463E
:1004300093401E00AF42C3D90022002300920193D3
:100440004346002BD8D0FB0772081A4346467B0868
:100450000EE0AB4201D1A2420CD8A41A9D4101206A
:1004600024196D410021013E24184D41002E06D073
:10047000AB42EED9013E24196D41002EF8D100980F
:1004800001995B4600196941002B24DB2B005A4679
:100490004446D3402A00E2401C005B461500002B76
:1004A0002ADB26009E40330026004746BE4032002D
:1004B000801A9941009001919EE7A342BCD882E73F
:1004C0004246202300219B1A002200910192012222
:1004D000DA40019285E7424620239B1A2A004646CD
:1004E0009A402300F340444613432A00E2401C0094
:1004F0005B461500002BD4DA42462F00202326004D
:1005000097409B1ADE403B003343CDE7F8B5CE461B
:10051000474643025A0A4E024500C40F480091461E
:100520002D0E720A000E944680B59B09C90FB609BC
:100530002A1A8C4221D0002A0DDD00282DD1002E50
:1005400000D18DE0511E012A00D11DE1FF2A00D10A
:10055000ABE00A0027E0002A4DD0421B002D00D05E
:10056000CCE0002B00D179E0541E012A00D128E113
:10057000FF2A00D197E02200C5E0002A00DC96E0C7
:1005800000284FD0FF2D00D18FE08021C9040E43F9
:100590001B2A51DD2A00013318E0FF2D00D184E031
:1005A0008021C9040E4301211B2A08DC31002020D0
:1005B000D140821A96403200501E824111435B1A8C
:1005C0005A0159D407212A00194049D00F21194056
:1005D000042900D00433590142D5501CFE2A3AD0D8
:1005E0009B01C0B25B0AC0051843E4072043C0BCAE
:1005F000B946B046F8BDFE2080466F1C380047461D
:10060000074200D08EE0002D00D0B4E0002B00D1D6
:10061000DBE0002E6CD0981B450100D4F7E00C0005
:10062000F31A3DE0002E1BD0511E012A00D182E0BA
:10063000FF2A3AD00A00ABE731002020D140821ACD
:1006400096403200501E82410A439B185A01B9D588
:100650006A1CFE2D75D1FF200023C4E70C00330077
:10066000DB08FF2A46D1002BF5D08022D2031343AA
:100670005B02FF205B0AB6E79F01BF09380002F06A
:1006800021FC05388740854224DC3B002021421BA9
:100690000132D3408A1A97407A1E974100223B4389
:1006A000590793D197E70C003300DB08DBE7002AFA
:1006B00014D0421B002D4BD1002BD0D0511E012A4B
:1006C00000D19EE0FF2AEFD00A001B2A5FDD020066
:1006D000731C7BE7504B2A1A3B40E1E7FE216A1C62
:1006E00011423BD1002D5DD1002B7FD0002E7FD158
:1006F0000022DB085B025B0AD0B274E7FF28D2D08D
:100700008024E404234301241B2A07DC1C00202549
:10071000D440AA1A93405A1E93411C43331B050030
:100720000C004DE79F1B7A0122D4002FA6D1002494
:100730000020002357E79B1901250132590100D4FD
:1007400040E70121354819405B0803400B43A7E708
:10075000FF28A9D08021C9040B43B6E7FF2A00D1A6
:1007600079E79B195B08590700D02FE7DB08C1E741
:100770000C00F71A82E7002B2CD1002E93D1802396
:100780000024FF20DB032EE701259B1B18E719003F
:100790002025D140AA1A93405A1E93410B430500CD
:1007A0009B1953E7002B00D17EE7002E00D17CE798
:1007B0008022D203914502D3944500D23300DB0856
:1007C00053E70C00F31A0135FAE6002EAFD00C0007
:1007D00033008DE7002E00D167E78022D2039145D8
:1007E000EDD39445EBD20C003300E8E733007FE70C
:1007F0009B1900225901B9D5074A1340DB08012291
:1008000078E79B190132013559019AD4DAE6031EC3
:100810008DD0DB086EE7C046FFFFFFFBFFFFFF7DCB
:10082000F0B54F464646D6464402C0B547000E1CBA
:10083000640A3F0EC50F002F3CD0FF2F42D000238B
:10084000802299469A46E400D20414437F3F730203
:100850005B0A984673001B0EF60F002B1BD0FF2B74
:1008600013D042468021D200C9041143884600209B
:100870007F3B2900FF1A4B467140C9B20F2B00D9AC
:10088000B5E0744A9B00D3589F464346002B3FD1A6
:10089000FF3F023303E04346002B2DD10123290003
:1008A0004A467140C9B21A430E2A38D86A489200A3
:1008B00082589746002C13D104239946033B002706
:1008C0009A46C4E7002C05D108239946063BFF272A
:1008D0009A46BCE70C239946093BFF279A46B6E7A0
:1008E000200002F0EFFA7627431F9C4000237F424E
:1008F00099469A463F1AAAE7404602F0E3FA424672
:10090000431F9A4076235B421B1A90460020B0E7B3
:1009100003234A461A4391460320FC33A9E70D00FE
:10092000FF200022C005ED0710432843E0BCBA4673
:10093000B146A846F0BD0D0000200022F2E7534664
:10094000022BEDD0032B33D0A046012B05D1002084
:100950000022E7E7350003287AD03B007F33002BE5
:100960002DDD4246520707D00F2241460A40042A95
:1009700002D004229446E0444246120105D5424684
:10098000364B1A403B0090468033FE2BC8DC424673
:100990009201520AD8B2C5E780220025FF20D20377
:1009A000C0E78022D203144202D04346134249D00A
:1009B0008022D20322435202FF20520AB2E70122D0
:1009C000D31A1B2BC3DC4246DA4043469E37BB405A
:1009D000591E8B411A43530704D00F231340042B95
:1009E00000D00432530129D5012000229AE7424663
:1009F00063015501AB4215D21B200022013F0126A5
:100A00001C0052005B00002C01DB9D4201D85B1BE7
:100A1000324301380028F3D1581E834113439846CE
:100A20000D009AE71A2001225B1BE8E7023B5A42BD
:100A300053415B4235000022D8B273E79201002097
:100A4000520A6FE71A4352023500FF20520A69E743
:100A50004446ADE720A1000860A10008FFFFFFF7B2
:100A600070B542004E024C0045026D0A120EC30FD3
:100A7000760A240EC90FFF2A10D0FF2C0CD00120BB
:100A8000A2420AD1B54208D18B420FD0002A04D12C
:100A90002800431E984100E0012070BD0120FF2C7A
:100AA000FBD13543F9D14B401800F6E70020F4E7BD
:100AB00030B5420044024D02C30F4800640A120ED2
:100AC0006D0A000EC90FFF2A19D0FF280BD0002A8B
:100AD0001ED100280BD1002D27D0002C34D10029A5
:100AE0002FD0080030BD002D28D1002A01D1002CC4
:100AF000F5D08B4207D1002B23D01800F2E7002C51
:100B00001CD1FF2814D0581E022318400138E9E7F1
:100B10000028F8D08B42F6D18242F4DCEBDBAC4209
:100B2000F1D80020AC42DDD2E5E7002CDAD0EAE7CC
:100B3000002D03D18B42E6D10020D3E702204042B2
:100B4000D0E701204042CDE78B42E8D0DBE7C0464A
:100B500030B5420044024D02C30F4800640A120E31
:100B60006D0A000EC90FFF2A1AD0FF280ED0002AE6
:100B70001ED100280ED1002D2AD0002C0CD08B4283
:100B80001DD0581E02231840013810E0002D0DD151
:100B9000002A20D1002C1ED1002923D0080006E015
:100BA000002C03D1FF28ECD1002D17D0022030BD3E
:100BB0000028E6D08B42E4D18242E2DC04DBAC4286
:100BC000DFD80020AC42F2D2002B0BD01800EEE7A9
:100BD000002CECD0D5E78B42D3D1F5E700208B4237
:100BE000E5D0CEE701204042E1E7C046F0B54F46F0
:100BF0004646D64643025B0A4500C0B599460F1CDF
:100C00002D0EC60F002D00D188E0FF2D00D18DE004
:100C10008022DB00D2041A430023914698469A466C
:100C20007F3D7C027B00640A1B0EFF0F002B68D007
:100C3000FF2B21D08022E400D204144342467F3BA4
:100C40005B1900215D1C0A2A2EDC7E404246022AE6
:100C500023DC013A012A00D9BDE002296ED0012926
:100C60002CD100200022C005F60710433043E0BC21
:100C7000BA46B146A846F0BD2B00FF33002C65D024
:100C80000322414611433200013588467A40FF3540
:100C90000A2900DDD8E016000321404601228240E7
:100CA000A620C000024220D05346022B46D0032B80
:100CB00000D1BBE051464C460129D2D02B007F33F6
:100CC000002B70DD620704D00F222240042A00D0DE
:100CD0000434220103D5634B1C402B008033FE2BD0
:100CE0002CDCA201520AD8B2BDE79020800002425B
:100CF00027D1B938FF3810426DD03E00A1468A4650
:100D0000D2E7002C41D1012342461A4390462B00E2
:100D1000424601215D1C0A2A97DDC5E7002B26D13A
:100D200004239846033B00259A467AE7002B18D106
:100D300008239846063BFF259A4672E7FF200022CB
:100D400091E780220026FF20D2038CE74146022251
:100D5000013511438846FF350A29A5DC02217E4072
:100D600074E70C239846093BFF259A4659E718007B
:100D700002F0A8F84A46431F76259A4000236D42A8
:100D8000914698469A462D1A4BE7200002F09AF8B1
:100D90004246431F9C402B1A763B00215D1C0A2AC9
:100DA00000DC52E780E70122D31A1B2B00DD58E755
:100DB0009E352200AC40DA40631E9C41224353071B
:100DC00004D00F231340042B00D00432530137D535
:100DD0000120002247E7210C4A462404240C270066
:100DE000100C1204120C44435743484351433A0C2D
:100DF00009195218944203D9802149028C46604453
:100E00003F0411043F0CC9198C01671EBC41120C30
:100E1000890E12180C439201144312010ED50123BE
:100E200062081C40144349E73E00A14680224B461D
:100E3000D2031A435202FF20520A14E71D003DE775
:100E400092010020520A0EE70F29EDD180224B4675
:100E5000D2031342EAD01442E8D13E00FF202243DD
:100E600001E7C046FFFFFFF7F8B54746CE464E0202
:100E700043024500720AC40F480080B594465F0AD9
:100E80002D0E9B09000EC90FB609FF2824D00122A0
:100E900051402A1A8C420FD0002A00DC6AE1002857
:100EA00035D1002E00D1A2E0511E012A00D124E14B
:100EB000FF2A21D00A002FE0002A00DC67E1002889
:100EC0005ED0FF2D18D08021C9040E431B2A00DC00
:100ED00076E02A00013332E02A00FF3A9146002EE4
:100EE00042D08C4255D04A46002A00D19CE0002DC9
:100EF00000D177E00C003300DB08002B00D16EE05E
:100F00008022D20313435B02FF205B0A24E0FF2D03
:100F1000F2D08021C9040E4301211B2A08DC3100D4
:100F20002020D140821A96403200501E8241114347
:100F30005B1A5A0160D407212A00194057D00F21AB
:100F40001940042900D00433590150D5501CFE2A01
:100F500045D09B01C0B25B0AC0051843E40720439B
:100F6000C0BCB946B046F8BD012251408C42BAD14E
:100F70004A46002A10D0002D00D198E00023BBE79C
:100F8000002E34D0511E012A6ED0FF2AB4D00A00A0
:100F90009CE7002A00D088E0FE206A1C104200D0A6
:100FA00092E0002D00D0A4E0002B00D1CBE0002E79
:100FB00000D0CAE00022DB085B025B0AD0B2CBE7BC
:100FC00031002020D140821A96403200501E8241CA
:100FD0000A439B185A01AED56A1CFE2D4AD1FF2048
:100FE0000023B9E7FF22002B4BD10C003300DB08B4
:100FF000FF2A00D181E7DFE79F01BF09380001F038
:1010000061FF05388740854221DC3B002021421BDF
:101010000132D3408A1A97407A1E974100223B43FF
:10102000590700D08BE78FE7FE206A1C104212D1CF
:10103000002D52D1002B7CD0002EBBD09A1B50012A
:1010400000D48BE001240022F31A0C40E8E7564B51
:101050002A1A3B40E4E79F1B7A0146D4002FCDD1EA
:1010600000240020002377E79B1901250132590154
:1010700000D460E701214D4819405B0803400B4351
:10108000CEE7571E012A5AD00C00FF2A33D0012286
:101090001B2F07DC2021C91B1A008B40FA40591E68
:1010A0008B411A430500B31A43E7002D23D1FF22D9
:1010B000002B9BD0511E012AD6D0FF2A1BD01B2902
:1010C0002CDD0200731C3AE7FF2A88D09B195B08CD
:1010D000590700D033E7DB086EE7002B10D1002E54
:1010E00043D0012433000C4006E70124F71A0C40DA
:1010F00084E7002B04D13300FEE601259B1B18E793
:10110000002E00D1F8E68022D203974204D3944502
:1011100002D2012433000C40DB08F1E61A0020253E
:10112000CA40691A8B40591E8B41134305009B1915
:1011300050E7002E94D0012433000C403AE70C0015
:101140000125F31AF5E6330034E79B190022590113
:10115000C1D5154A1340DB0801222DE7002A00D132
:101160007EE713000022DB0826E780230024FF200F
:10117000DB03F1E6002A00D156E7471B3A00002DB9
:1011800000D130E78022D2040C0013437FE7002A0D
:1011900000D101E7411B002D01D10A0088E7802220
:1011A000D20413438BE7C046FFFFFFFBFFFFFF7D29
:1011B00041024200C30F490A0020120E7E2A03DDBD
:1011C0009D2A02DD094A98187047802000040143D7
:1011D000952A07DC9620821AD1404842002BF3D191
:1011E0000800F1E7963A9140F7E7C046FFFFFF7F1E
:1011F00070B5002813D0C317C5185D40C40F280070
:1012000001F060FE9E2301001B1A962B0FDC0828BC
:1012100034D008398D406D026D0AD8B202E0002446
:1012200000200025C0052843E407204370BD992B0A
:1012300016DC421F052800D095402A0011480240C4
:101240006E0709D00F263540042D05D00432550114
:1012500002D59F2302405B1A9201550AD8B2E1E7FA
:101260000522121A2800D040020008001B308540D9
:101270002800451EA84102431500DEE76D029620B6
:101280006D0ACFE7FFFFFFFB70B5041E0ED001F023
:1012900019FE9E2301001B1A962B0CDC08282FD068
:1012A00008398C406402640AD8B201E000200024AE
:1012B000C005204370BD992B16DC421F052800D0C5
:1012C0009440220010480240650709D00F252C40A9
:1012D000042C05D00432540102D59F2302405B1A2E
:1012E0009201540AD8B2E3E7020020001B3290407A
:1012F0000200501E82410520401AC4401443E0E71A
:1013000064029620640AD3E7FFFFFFFBF0B557465F
:101310004E464546DE46E0B583B0009001910C0391
:101320004F00CE0F610A009C1D03640F0C4300990F
:1013300000920193C80059004B0D9946009A019BF9
:101340006D0AD90F530F2B439A46009B7F0DDA008D
:1013500094464A46B046BA1A8E4200D1B0E0002AFE
:1013600000DC78E04946002900D1E9E0C9498F4214
:1013700000D195E10125382A16DC80215346090465
:101380000B439A461F2A00DDE7E1202155468B1AC0
:1013900061469D40D1400D43614699404B1E9941A5
:1013A0005346D3400D43E41A451BA84280414042B6
:1013B000241A230200D40FE16402640A002C00D135
:1013C00039E1200001F07EFD0300083B20212800C8
:1013D000CA1AD0409C4002009D4022439F4200DD3B
:1013E00073E1D81B0130091A2C008D40C4406B1EDC
:1013F0009D411300C2408B402543002714001D432C
:101400006B0709D00F232B40042B05D02B1DAB42BB
:10141000AD416D4264191D00230200D42DE19D4AA7
:101420000137974200D1D3E046469B49ED08214061
:101430004A072A437C054D022D0B640D24052C43DD
:10144000F60734431000210003B0F0BCBB46B2469F
:10145000A946A046F0BD002A00D184E04A46D21B2E
:10146000002F00D06DE12500054300D127E1561E75
:10147000012A00D13BE2874DAA4200D16AE2012550
:10148000382E12DC32001F2A00DDF8E1202625006C
:10149000B61A07005346B040D440B540D740461E68
:1014A000B0411B1B9A463D4305436246551BAC4564
:1014B0009241534652420E004F4688469C1A78E7A6
:1014C000002A00DC8EE04946002975D1614653466A
:1014D000194300D1F6E0511E012A00D191E16D4D72
:1014E000AA4200D1DCE00125382914DC0A001F2AB9
:1014F00000DDA2E120215346891A8B401D0063467E
:10150000D3401D4363468B4019004B1E99415346FF
:10151000D3400D43E4182D188542804140422418E1
:10152000230259D55B4B01379F4251D001215A4BC1
:101530006A081C4029400A43E507154364085FE731
:1015400061465346194300D1BCE0511E012A00D127
:1015500064E1504DAA4200D16AE10125382900DD3D
:1015600022E70A000EE74D4A7D1C154200D0D0E06C
:1015700025006246534605431A43002F00D037E149
:10158000002D00D1A8E1002A00D16AE16346C51A06
:101590005346E21AA8429B415B42D31A1A0200D476
:1015A00003E263461D1AAC459241534652421C1B4E
:1015B0000E008846A41A23E736498F4270D00125D1
:1015C000382AA8DC8021534609040B439A468EE74B
:1015D0003C000025002231E707232B40002B00D0E0
:1015E00010E793E0002A74D04A46D21B002F00D1A6
:1015F000C7E02849894500D185E10125382A12DC58
:10160000802109040C431F2A00DDABE120212500C5
:10161000891A070088408D40D740411E8841D44038
:101620003D430543A24465446545924152425244BC
:1016300014004F4674E7280001F044FC03001833FF
:101640001F2B00DCC2E62A00083882409F4200DDE2
:10165000A9E0DB1B581C1F2800DCACE115001F3B78
:10166000DD40202805D040231B1A9A40531E9A4182
:101670001543072300272B40B0E7ED08054B620711
:101680002A43E4089F420FD02403250B7C05640DF8
:10169000D4E6C046FF070000FFFF7FFFFE07000003
:1016A000C00862070243E4081300234300D186E127
:1016B00080252D0325432D03C34C2D0BBEE660462C
:1016C00054460E001700C508D8E7C04CFF1A144056
:1016D00096E6BF4A791C11426BD122000243002FCB
:1016E00000D0DBE0002A00D12DE1624653461A43C8
:1016F00000D1B6E06346C51885428041544440425B
:101700002418230202D50F00B04B1C403A002800D9
:10171000D8E76246851AA842924153465242914602
:10172000E31A1A004B46D21A130091461A0254D4F7
:101730004A464C462A4300D040E6002600240025B5
:101740007CE6A14DA94500D190E00125382A00DDB5
:10175000ABE680252D042C4395E611005546203933
:10176000CD40A946202A06D0402153468A1A9340EC
:1017700062461A43944665466B1E9D414B461D4387
:1017800012E62100014300D1C4E0511E012A00D11C
:10179000FBE08D4DAA4200D1B5E00125382900DDDE
:1017A00041E70A002FE7894CFF1A14406207E4085A
:1017B0006AE7854A914200D1E3E06346C21882425B
:1017C00080412300404253441B18DD075C08072377
:1017D000520815430F002B4000E763461D1AAC4525
:1017E0009241534652421C1B0E008846A41AE5E55E
:1017F000002D00D091E0002A38D180240026240357
:1018000056E76346C5188542804154444042241837
:101810000127230200D4DFE6022787E66346C51AC4
:10182000A842804153464042E41A0127241AC0E5E9
:101830006207C0080243E40836E711005346203926
:10184000CB409946202A06D0402153468A1A93401D
:1018500062461A43944665466B1E9D414B461D43A6
:1018600059E66207C0080243E4080DE753465A07E9
:101870006346D80853460E000243DC0814E71500FF
:101880002600203DEE40202A03D04025AA1A94408D
:101890002043421E90410500354306E6002A7CD0D5
:1018A00062465346C0081A4300D1FAE66207104365
:1018B0008022E4081203144208D0D908114205D14D
:1018C0006346D80853460C005B071843420FC0001C
:1018D000C00852070243E7E6002A00D12DE763461D
:1018E000D80853465A070E000243DC08CCE663468C
:1018F0001D1AAC459241534652421C1B0E008846AD
:10190000A41A013755E56346D90853465A070A43D6
:10191000DC08C9E660465446D4E6C008002A00D177
:10192000BFE6620710438022E40812031442CDD0C0
:10193000DD081542CAD16346D80853465B070E003E
:101940002C001843C2E76346D90853465A070A4396
:10195000DC0899E66346D80853465A070E0002434E
:10196000DC08A1E6110027002039CF40202A03D04F
:1019700040218A1A94402043421E904105003D4375
:1019800051E60C000025002258E560446045924174
:10199000544452420500A4183AE753465A07634696
:1019A000D90853460A43DC087EE61A001C002A4385
:1019B00000D0ABE6C1E620210025091A19E5002276
:1019C0000025014C3AE5C046FF070000FFFF7FFFFE
:1019D000FE070000F0B5DE46454657464E46E0B5E8
:1019E00087B0009201930B031B0B9B46CA0F4B0061
:1019F000040080465B0D029200D16AE1D44A934212
:101A000000D18CE15946420FC9000A4380210904E4
:101A10001143C2009046CF4A894692469A44002319
:101A200000240393009E019F3B031B0B9B467B00FE
:101A300030005B0DFD0F002B00D128E1C44A93421A
:101A400000D177E15946720FC9000A438021090489
:101A500011438B46BF49F2008C4651466344CB1A72
:101A60009A460023029E6E400F2C27D8BA49A40044
:101A700009598F46CB464246029E039B022B16D045
:101A8000032B00D1A6E2012B00D0DFE000220023CF
:101A9000002490461B052343F607334340461900B4
:101AA00007B0F0BCBB46B246A946A046F0BD002236
:101AB00000249046A64BEDE72E00DFE7CB4500D291
:101AC000D4E100D1CFE101235B429C464446484625
:101AD0000027E2445B46150E1B021D43190C2B0424
:101AE000120200951D0C914602910395FEF79CFB96
:101AF00002006A430B04210C804619438A4209D92B
:101B0000009D0123AC465B4261449C46E0448D420B
:101B100000D8FBE1881A0299FEF786FB039A240499
:101B200042430904240C03000C43A24206D9009945
:101B3000013B8C466444A14200D8E1E1A01A424630
:101B400012041A4393464B4659461B0C1D0004933E
:101B50000B0449460904090C0C001B0C5C43120CD5
:101B60006B43884651436A43250CAC465B1863447B
:101B7000994203D9802149028C466244190C2404FD
:101B80001B04240C8A181C19904202D316D1A742B8
:101B900014D25B46009D013B4F4405934F459B414A
:101BA000AC465B426344C018854200D3A1E1824247
:101BB00000D9F6E100D1F1E1059B9B463C1BA74211
:101BC000BF41009D801A7F42C01B854200D1D0E1F9
:101BD0000299FEF729FB039A0B044243210C0700EC
:101BE00019438A4200D978E1881A0299FEF71CFB52
:101BF000039A240442430904240C03000C43A24228
:101C000000D95DE14146A41A3A041A43049D130425
:101C10001B0C594347466B439C46100C47430B0C27
:101C2000BC44634468439F4203D980256D02AC469F
:101C300060441F0C09041B04090C3F185B18BC42CC
:101C400000D202E100D1FDE001231A43434B53448B
:101C5000002B00DCAEE0510700D098E15946C901E5
:101C600006D559463E4B194080238B46DB00534432
:101C70003C498B4200DD1AE75946D2084907114317
:101C80005A465B0554028846240B5B0D02E75A4610
:101C9000009B1A4300D17EE05B46002B00D100E19F
:101CA000584601F00FF9020003000B3A1D27009E71
:101CB000BA1A19005846D640083988403200024303
:101CC0009346009A8A40284953448A469A440023FE
:101CD000C8E65B460343994656D05B46002B00D1CD
:101CE000CDE0584601F0EEF80B235B429C46020023
:101CF000844466461D239B1B260011005846DE4087
:101D00000839884033000343994623008B409846A6
:101D1000164B00249B1A9A460023039382E65A46E8
:101D2000024391462AD100229A4602239046082473
:101D3000039377E65A46009B1A430D4B9C46E244B8
:101D4000002A17D102231C4300239B46023389E655
:101D5000FF07000001FCFFFF9CA10008FF0300003B
:101D6000FFFFFFFEFE070000F30300000DFCFFFF76
:101D700001F8FFFF032332001C4373E69A46032356
:101D8000D9460C2403934DE6002398469A46013326
:101D90000424039346E601231C4300239B4601339E
:101DA00060E60023802498460026924B240371E6C7
:101DB000012252420121C91A382900DD66E61F2995
:101DC00000DCABE01F204042C31A5846D840030055
:101DD000202904D058468849514488400243511E66
:101DE0008A411A43072319000024114013420CD0E2
:101DF0000F231340042B00D1F9E0111D91429B41A8
:101E00000A005B4259075B021C0BD2080A4390464A
:101E100000233FE680244B462403234209D05B463F
:101E2000234206D11C4324032E009046714B240B01
:101E300030E680244B4624031C432403029E6D4B52
:101E4000240B27E6002B00D100E70098511E8446A2
:101E50006444844200D284E0BC4200D2AEE000D1AF
:101E6000C1E00A00F0E6424500D92CE64B46DC070B
:101E7000580843465B081C434346DF072AE601F047
:101E800021F815239C4684440200634620321C2B13
:101E900000DC2EE72300083883409946002398464B
:101EA00036E701F00FF802000300153220331C2A38
:101EB00000DCFBE600990838814000228B4602E7EF
:101EC0000099013B8C466444A14200D99AE6A242A3
:101ED00000D897E6831E644494E6AC466144013F13
:101EE0008D4200D980E68A4200D87DE6871E614493
:101EF0007AE6854200D05FE6B94500D95CE656E651
:101F0000A24200D81AE6831E644417E68A4200D82B
:101F100000E6AC46831E98466144FBE53748140052
:101F2000504482405B4617008340CC407A1E974164
:101F300023433B431A005B46CB40510709D00F2196
:101F40001140042905D0111D9142924152429B1823
:101F50000A00190200D455E700220123002490460C
:101F600098E50A00BC4200D06EE64B4500D06BE617
:101F70006CE6234B234A5344924500DA18E70121CB
:101F800049420A1D8A42894149428B4466E60F2133
:101F90001140042900D161E61100F2E7BC4200D8EB
:101FA0000AE602235B429C4600994F444F459B4101
:101FB000E3448C465B426344C018FFE54946009DFC
:101FC000480048458941AC46494261448146023A4D
:101FD0006418C7E780245B4624031C43240390460F
:101FE000044B240B56E59945E8D30A00BDE70023CE
:101FF00008E7C046FF0700003E0400001E04000082
:10200000FF03000002FCFFFFF0B55746DE464E46D8
:102010004546E0B51F000B031B0B16009A46CA0F7E
:102020004B000400934687B05B0D00D1D5E0BB4A5E
:10203000934200D1F8E05146420FC9000A43802183
:1020400009041143C2009146B54A8A469D180023EF
:10205000984602933C037B00FA0F3000240B5B0D83
:10206000009200D196E0AD4A934231D0720FE40065
:102070002243802424041443A94AF0009446634474
:102080005B195A1C0192424600260A2A42DC5A4633
:1020900000994A4093464246022A32DC013A012A1C
:1020A00000D949E1022E00D1CAE0012E3DD1002322
:1020B0000024002210005A461B052343D207134375
:1020C000190007B0F0BCBB46B246A946A046F0BD19
:1020D000924B2643EB18002E00D1BBE00322414671
:1020E00011435A46884600994A40802109018C468E
:1020F00029006144019141460A2900DD33E29346FB
:102100000326424601279740A6213A00C9000A400B
:102110000F4231D0029E022E00D135E2032E00D1B3
:10212000D2E154464846012EC1D0019A7D4B9446D7
:102130006344002B00DCC0E0420709D00F220240BC
:10214000042A05D0021D824280414042241810001A
:10215000E20106D5744B019A1C4080239446DB00B3
:102160006344724A93426BDC6207C00864025B05F9
:102170000243240B5B0D9DE7902189000F4263D140
:1021800088223A4200D1D7E0009BA2469B46814676
:102190000296BFE72300334300D17FE0002C00D13B
:1021A000ADE1200000F08EFE020003000B3A1D207E
:1021B0001900821A30000839D0408C4004433000A6
:1021C00088405B4AEB1A944663445A1C019242468B
:1021D00000260A2A00DC5AE79CE753460343994647
:1021E00054D05346002B00D177E1504600F06AFEF0
:1021F0000B235B429C460200844411005046083980
:1022000088401D23804660461B1A2000D8400300EA
:10221000404603439A4623008B4099460023444D91
:102220009846AD1A029315E752460243914626D1CD
:1022300000221D000223924608329046029309E7CD
:1022400000240022354B35E7002380249B462403DD
:10225000324B2FE70222414611438022120194465D
:102260002A006244884601920A2900DD52E75A4654
:102270000020009904004A40934602260BE70C22F6
:102280001D000323814690460293E3E600239A460D
:1022900004339846033B00250293DBE642460133B4
:1022A0001A432B0090465A1C0192424600240020FB
:1022B00001260A2A00DCEAE62CE70122D21A382A93
:1022C00000DDF4E61F2A00DC2AE11F214942CB1A77
:1022D0002100D9400B00202A05D0164A019D9446C2
:1022E0006544AC402043421E904118430723190027
:1022F0000024014003420CD00F230340042B00D1E3
:1023000040E1031D8342A441180064426107640256
:10231000240BC20800230A43CCE6C046FF07000096
:1023200001FCFFFFFF030000FFFFFFFEFE070000B0
:102330000DFCFFFF3E04000049464A460904090C13
:102340000D00160C020C0004000C4543AC460500C1
:102350007543A84615000F007543009202952A00A8
:10236000009D6F4365462D0CA94647444F44B84530
:1023700005D91500802252029046454402953D0C35
:10238000039565462D043F042D0CAC463D00654485
:102390000495250C2404240CAC4625007543A8465E
:1023A00065460F006943414489466743390C4944F7
:1023B0006E43884503D980225202904646440D0C54
:1023C000A846350045440595039D3F04A8463F0CAB
:1023D0000904C91988444546039555462E04360C10
:1023E0002F0C35004543784381463800A8462D0C14
:1023F000AA46009A504372434A445244914503D935
:1024000080256D02A9464844150CA94645462D0471
:102410002D0CA84665467D43120448449044A946C5
:102420003200654662436E437C43170C3619BF1970
:10243000BC4203D980246402A446E144029C039E6A
:10244000A446059D66448E428941AC4612043C0474
:10245000120CA2186244494254184644A446464508
:10246000A44182466442A046AA4292418C458941D9
:10247000E244D044494252420A43A045A441824525
:102480008941644249420C4341463F0CD21912191A
:10249000CC0D049970020843411E884141464A44CC
:1024A000F60D52023043490214430843D20135D598
:1024B0000122430802401343E0071843640834E64E
:1024C000009BA2469B4681468024534624031C431E
:1024D00024034A462E4B240BECE500F0F3FC1523B5
:1024E0009C4684440200634620321C2B00DC84E6B8
:1024F000002399462300083883409A468EE600F070
:10250000E1FC02000300153220331C2A00DC4EE6F9
:1025100002003400083A0020944052E6019304E699
:102520001C4B21009C460300019DD3406544A940FB
:1025300019430300AB40581E834119430800D4409F
:102540004B0709D00F230B40042B05D00B1D8B42EA
:102550008041404224181800230200D4D6E601230B
:1025600000240022A6E50F29AAD1802352461B038E
:102570001A42A9D01C42A7D11C43009B02009B46D3
:10258000034B97E50024C1E60024014B220091E5AE
:10259000FF0700001E040000F0B54E464546DE462B
:1025A0005746E0B585B0009001910C034F00CE0F67
:1025B000610A009CB046640F0C4300997F0DC8006F
:1025C00011001A001B039C460091019251004B0D13
:1025D0009946019B009DD90F63466A0F5B0A13431E
:1025E000EA0094469346C14A03900293914500D174
:1025F000CDE0012569404D467D1BAA468E4200D1A3
:1026000080E0002D00DC35E34946002900D1DFE001
:10261000974200D194E152460125382A19DC8022E4
:10262000029B12041343029352461F2A00DDE3E18A
:10263000534620226146029DD21A9540D9400D434F
:10264000614691400A00511E8A411543029ADA40C0
:10265000A41A451BA84280414042241A230200D4F8
:102660003DE16402640A002C00D147E1200000F043
:1026700029FC0300083B20212800CA1AD0409C40B6
:1026800002009D4022439F4200DD77E1D81B0130CC
:10269000091A2C008D40C4406B1E9D411300C2409E
:1026A0008B402543002714001D436B0709D00F23DF
:1026B0002B40042B05D02B1DAB42AD416D4264195C
:1026C0001D00230200D440E1884A0137974200D11F
:1026D00001E1012643468649ED0821404A072A4385
:1026E0007C054D022D0B640D1E4024052C43F6077E
:1026F00034431000210005B0F0BCBB46B246A946E9
:10270000A046F0BD002D00DCD0E24946002900D0F3
:10271000D4E06146029B194300D12BE1691E012DD3
:1027200000D1D9E1954200D10AE10125382917DC11
:102730008A4653461F2B00DDE7E12022D21A029B76
:10274000614693401D005346D940634693401A00AA
:102750000D43511E8A4153461543029ADA40A4188C
:102760002D188542804140422418230200D4B6E04F
:102770005E4B01379F4200D1ADE001215C4B6A08FE
:102780001C4029400A43E507154364088DE7594A70
:10279000029B92466246BA441A432CD08E422ED0F7
:1027A0005246002A60D0002F00D1DBE063460E00C5
:1027B000029CD80862070243E4081300234300D1B7
:1027C00054E280252D0325432D03484C2D0B8CE727
:1027D0006146029B194300D1CCE029000139012D4B
:1027E00000D188E1954200D1AAE00125382900DD19
:1027F0002FE78A4618E7012251408E42D0D1534636
:10280000002B00D1BEE0002F00D038E1CA462200E4
:10281000024300D1E2E15346591E012B00D10DE2E3
:10282000324A924500D1D2E10127382913DC1F2911
:1028300000DDEEE12022029B521A250007009A4695
:10284000CC4090409540CF40A244421E9041534618
:102850002F43074302933D00654465459241029B27
:1028600052424F46D41880E7234A7D1C154200D0BF
:10287000AAE062462500029B05431A43002F00D0C0
:10288000F5E0002D00D16BE1002A00D152E1634652
:10289000C51A029BE21AA8429B415B42D31A1A0254
:1028A00000D4D5E163461D1AAC4592410126029B36
:1028B00052421C1B8846A41A0E40F6E697423FD0AF
:1028C00052460125382A00DD4AE78022029B120485
:1028D000134302932DE73C000025002205E7072360
:1028E0002B40002B00D0E2E66BE0C046FF07000063
:1028F000FFFF7FFF01F8FFFFFE070000280000F048
:10290000E1FA030018331F2B00DCB4E62A00083874
:1029100082409F4200DDB9E0DB1B581C1F2800DC11
:10292000A0E115001F3BDD40202805D040231B1AE5
:102930009A40531E9A411543072300272B40D0E7A6
:10294000C00862070243E40837E7EA0863071A434E
:10295000D34BE4089F4200D12FE72403250B7C05CD
:10296000640DC2E6CA462200024358D163460E00F7
:10297000029C0393039B5746DA08E7E7C94CFF1A0A
:10298000144092E6C84D7A1C2A4200D084E022000E
:102990000243002F00D0EFE0002A00D1E5E06246BC
:1029A00002990A4300D1C5E06346C5188C468542AA
:1029B0008041644440422418230202D5B94B0137B8
:1029C0001C40BA460395D5E76246851AA842924153
:1029D00052429146029BE31A1A004B46D21A130048
:1029E00091461A026CD44A464C462A4300D03AE635
:1029F00000260024002578E6029953460D00203A6F
:102A0000D540202B06D04022D21A0B0093406246BC
:102A10001A4393465B465A1E93411D4319E653469B
:102A20005A1E012B00D1C6E09D4EB24500D1BDE635
:102A300088460E000125382A10DC1F2A7FDC202161
:102A40002500891A070088408D40D740D440411E98
:102A50008841029B3D431B1B054302936246551B65
:102A6000AC459241029B52424F469C1AF6E5002D1E
:102A700000D0B7E0002A00D1F0E001260E40634606
:102A80000298D90842070A43C40896E6854CFF1A03
:102A900014406207E40860E781498A4200D1C9E036
:102AA0006346C11881428041029B4042E3181B18D3
:102AB000DD075C08072349080D4317002B4010E78A
:102AC00063461D1AAC4592410126029B52421C1BD3
:102AD0008846A41A0E40C6E56346C518029B854287
:102AE00080419C464042644424180127230200D4BC
:102AF000F5E6022741E66346C51AA8428041029BDB
:102B00004042E41A0127241AA8E5029D52462B00F0
:102B1000203AD34019005346202B06D04022D21A27
:102B20002B00934062461A4393465D466B1E9D41BF
:102B30000D4315E66207C0080243E4080DE71100E3
:102B400027002039CF40202A05D040218A1A9440FE
:102B5000250005430395039D6A1E95413D437DE78E
:102B6000002A00D144E701260E406346D908029BA3
:102B70005A070A43DC08F0E6002A28D06246029F82
:102B8000C0083A4300D1DCE6620710438022E40823
:102B90001203144209D0FD08154206D163460126EE
:102BA0002C00D8087B0718430E40420FC000C00815
:102BB0005207024301E663461D1AAC459241029B4F
:102BC00052421C1B0E0088460127A41A46E56346A4
:102BD000D908029B5A070A43DC08EEE56346029CCB
:102BE0000393C7E6C008002A00D1AAE66207104393
:102BF0008022E40812031442D7D0029FFD08154238
:102C0000D3D163460126D8087B072C0018430E4019
:102C1000CBE70A002700203AD740202905D04022E0
:102C2000521A9440250005430395039D6A1E954161
:102C30002F4310E614000025002256E5029B604455
:102C40009946604592414C4452420500A4184CE715
:102C50001A001C002A4300D0B3E6C9E680240026EF
:102C60002403AEE520210025091A17E500220025DE
:102C70000B4C3AE5002D00D1F6E54B46DA1B9246A7
:102C8000002F00D16FE6382A05DC80263604344355
:102C900088460E00D1E688460E000125DEE6C046D5
:102CA000FF070000FFFF7FFFFE070000002D00D19F
:102CB00068E64B46D91B002F01D18A46A7E50127BC
:102CC000382900DDC7E5802212041443AFE5C04671
:102CD00070B5002816D0C317C5185D40C40F280072
:102CE00000F0F0F8104B1B1A5B055B0D0A2814DC92
:102CF00002002E00153296400B22121AD5402D03E9
:102D00002D0B03E000240023002500261B052B4388
:102D1000E40723433000190070BD0B3885402D03B4
:102D200000262D0BF2E7C0461E04000070B54202DB
:102D30004300C40FFE201B0E591C550A08420CD03C
:102D4000E02189008C466D07120B63441B05134379
:102D5000E40723432800190070BD002B14D1002D77
:102D60001BD0280000F0AEF80A281CDC0B232A0038
:102D70001B1ADA40030015339D400E4B12031B1A39
:102D80005B05120B5B0DE1E7002D09D0130B8022D0
:102D900012031A436D07084BD8E700230022D5E73A
:102DA0000022054BD2E703002A000B3B9A40002586
:102DB000E3E7C04689030000FF070000F0B54B00C1
:102DC0000F035B0D3B4C450F83B07F0A5E1C2F4306
:102DD00000900191CA0FC50026420BD036495C18FD
:102DE000FE2C13DDFF200023C0051843D20710433B
:102DF00003B0F0BD002B02D100200023F4E73D43D7
:102E0000F0D08023DB03FF203B43EDE7002C14DDF3
:102E1000009BFF009B01581E8341690F3B430B43FE
:102E2000590741D00F211940042928D004335901F2
:102E300025D501340023E0B2D6E721001731DBDBD2
:102E400080211E2009043943001B1F281BDD022698
:102E50007642341B0E00E6403400202804D0174888
:102E60008446634499400D432B00591E8B412343F4
:102E7000590715D00F2100241940042917D19B01AF
:102E80005B0AE0B2B0E70E4C1C192B00A540C34012
:102E9000A140681E854129430B4300245907C1D135
:102EA0009B0100205B0A9FE7DB08E0B29CE704334C
:102EB000E5E7C046FE07000080FCFFFFA2FCFFFF25
:102EC00082FCFFFF1C2101231B04984201D3000C4C
:102ED00010391B0A984201D3000A08391B0998428D
:102EE00001D30009043902A2105C40187047C046A3
:102EF00004030202010101010000000000000000C3
:102F000010B5002903D1FFF7DDFF203002E00800F3
:102F1000FFF7D8FF10BDC04680B500AF02F0D6F86D
:102F200000F036F800F072FB00F052FB00F0A6F85B
:102F300000F044F900F082F900F0C0F900F0E8FA7E
:102F400000F016FB00F06CFA00F0A8FA00F00AFAA4
:102F500001F056FD01F06CFD084A094909487E233D
:102F600001F02EFB084B180001F02AFB074B18005C
:102F700001F026FB01F07CFDFCE7C046DCA1000867
:102F8000DC9E0008E09E0008F09E0008109F0008EC
:102F900090B59BB000AF34243B19180034231A00BD
:102FA000002106F024FB2023FB18180014231A002C
:102FB000002106F01CFB3B00180020231A00002112
:102FC00006F015FB2B4B1B682B4A1A40294B80211E
:102FD00009010A431A6021007B1802221A607B183B
:102FE0000122DA607B1810221A617B1802225A62D1
:102FF0007B1800229A627B188022D202DA627B1848
:103000008022D2031A637B18180003F059FE031EB6
:1030100001D000F0E3FB20217B180F221A607B18FF
:1030200003225A607B1800229A607B180022DA6023
:103030007B1800221A617B180121180004F0BCF9EA
:10304000031E01D000F0CAFB3B0009221A603B00BE
:1030500000229A603B0000225A613B00180004F0F5
:10306000CFFB031E01D000F0B9FBC046BD461BB02C
:1030700090BDC04600700040FFE7FFFF80B582B002
:1030800000AF3B00180008231A00002106F0AFFA39
:10309000444B454A1A60434B0022DA63414B80227D
:1030A00012035A603F4B00229A603E4B02229A6301
:1030B0003C4B01221A613B4B0022DA60394B202243
:1030C00000219954374B212200219954354B8022FD
:1030D000D2009A62334BC02252005A62314B2C22EA
:1030E000002199542F4B08225A612E4B00221A635B
:1030F0002C4B00229A612B4B00225A63294B002251
:10310000DA61284B180002F051F8031E01D000F0DC
:1031100065FB3B0001221A603B00802252015A608D
:103120003A00204B1100180002F046FA031E01D0AD
:1031300000F054FB3B001D4A1A603A00194B110085
:10314000180002F039FA031E01D000F047FB3B00E3
:10315000174A1A603A00134B1100180002F02CFABB
:10316000031E01D000F03AFB3B00124A1A603A00FD
:103170000C4B1100180002F01FFA031E01D000F0E2
:103180002DFB3B000C4A1A603A00064B1100180058
:1031900002F012FA031E01D000F020FBC046BD462B
:1031A00002B080BD7C000020002401400200000429
:1031B000040000080800000C1000001080B500AFEB
:1031C0001B4B1C4A1A601A4B1B4A5A60184B0022B0
:1031D0009A60174B0122DA60154B00221A61144BDA
:1031E00000225A61124B00229A61114B0022DA61CF
:1031F0000F4B00221A620E4B180003F03FF8031E1B
:1032000001D000F0EBFA0A4B0021180003F0C0FCDB
:10321000031E01D000F0E2FA054B0021180003F074
:1032200003FD031E01D000F0D9FAC046BD4680BDA3
:103230002001002000540040BB7C700080B500AF2E
:103240001B4B1C4A1A601A4B1B4A5A60184B00222F
:103250009A60174B0122DA60154B00221A61144B59
:1032600000225A61124B00229A61114B0022DA614E
:103270000F4B00221A620E4B180002F0FFFF031ED4
:1032800001D000F0ABFA0A4B0021180003F080FCDB
:10329000031E01D000F0A2FA054B0021180003F034
:1032A000C3FC031E01D000F099FAC046BD4680BDA4
:1032B0006C01002000580040BB7C700080B586B0D7
:1032C00000AF0823FB18180010231A00002106F095
:1032D0008EF93B00180008231A00002106F087F938
:1032E0001E4B8022D2051A601C4B00225A601B4BD9
:1032F00000229A60194B1A4ADA60184B00221A61B0
:10330000164B00225A61154B180004F0BFFB031E38
:1033100001D000F063FA08217B18802252011A6064
:103320007A180E4B1100180004F020FE031E01D085
:1033300000F054FA3B0000221A603B0000225A6061
:103340003A00064B1100180005F0FEF8031E01D0EC
:1033500000F044FAC046BD4606B080BDB80100206A
:10336000FFFF000080B586B000AF1023FB181800E7
:1033700008231A00002106F03AF93B001800102338
:103380001A00002106F033F9224B234A1A60214B20
:10339000224A5A601F4B00229A601E4BC722DA60F5
:1033A0001C4B00221A611B4B00225A61194B18005A
:1033B00004F066FC031E01D000F010FA10217B1807
:1033C00020221A607B1800225A607A18114B1100D3
:1033D000180005F0B9F8031E01D000F0FFF93B001A
:1033E00000221A603B0000225A603B0000229A60D3
:1033F0003B000022DA603900064B0022180004F07E
:1034000067FD031E01D000F0E9F9C046BD4606B0D5
:1034100080BDC046F801002000040040FF180000F5
:1034200080B582B000AF3B00180008231A000021CD
:1034300006F0DDF8154B164A1A60144B154A5A600F
:10344000124B00229A60114B134ADA600F4B002294
:103450005A610E4B180004F019FB031E01D000F056
:10346000BDF93B0000221A603B0000225A603A007E
:10347000064B1100180005F067F8031E01D000F09C
:10348000ADF9C046BD4602B080BDC046380200203E
:1034900000100040FF7C0000E703000080B582B010
:1034A00000AF3B00180008231A00002106F09FF827
:1034B000154B164A1A60144B4022FF325A60124BC9
:1034C00000229A60104B6322DA600F4B00225A618F
:1034D0000D4B180004F0DAFA031E01D000F07EF95B
:1034E0003B0000221A603B0000225A603A00064B63
:1034F0001100180005F028F8031E01D000F06EF945
:10350000C046BD4602B080BD7802002000140040D5
:1035100080B500AF144B154A1A60134BE1225202DA
:103520005A60114B00229A600F4B0022DA600E4B5A
:1035300000221A610C4B0C225A610B4B00229A613B
:10354000094B0022DA61084B00221A62064B002266
:103550005A62054B180005F055F8031E01D000F023
:103560003DF9C046BD4680BDB8020020003801408C
:1035700080B500AF144B154A1A60134BE12252027A
:103580005A60114B00229A600F4B0022DA600E4BFA
:1035900000221A610C4B0C225A610B4B00229A61DB
:1035A000094B0022DA61084B00221A62064B002206
:1035B0005A62054B180005F025F8031E01D000F0F3
:1035C0000DF9C046BD4680BD3C03002000500040C0
:1035D00080B582B000AF0C4B1A6B0B4B01210A4334
:1035E0001A63094B1B6B012213407B607B6800222E
:1035F0000021092002F016FA092002F028FAC0463C
:10360000BD4602B080BDC0460010024090B58BB0F0
:1036100000AF14243B19180014231A00002105F0F0
:10362000E6FF684BDA6A674B04210A43DA62654BAE
:10363000DB6A042213403B613B69624BDA6A614BEF
:1036400080210A43DA625F4BDB6A80221340FB6011
:10365000FB685C4BDA6A5B4B01210A43DA62594B27
:10366000DB6A01221340BB60BB68564BDA6A554BDC
:1036700002210A43DA62534BDB6A022213407B6069
:103680007B6880239B0150480122190002F0D9FD7C
:103690004E4B01220321180002F0D3FD98235B0159
:1036A0004B480022190002F0CCFD80235900A023D2
:1036B000DB050022180002F0C4FD3B1980229201B4
:1036C0001A603B1901225A603B1900229A603B198B
:1036D0000022DA603B193C4A1900100002F016FC87
:1036E0003B1903221A603B1901225A603B19002240
:1036F0009A603B190022DA603B19344A1900100025
:1037000002F004FC3B19334A1A603B1900225A604C
:103710003B1900229A603A19A023DB05110018001A
:1037200002F0F4FB3B192C4A1A603B1900225A6044
:103730003B1900229A603B19254A1900100002F03B
:10374000E5FB21007B18982252011A600C003B19FE
:1037500001225A603B1901229A603B190022DA606B
:103760003B191B4A1900100002F0D0FB21007B1806
:10377000802212021A600C003B1900225A603B1989
:1037800001229A603B19124A1900100002F0BEFB98
:1037900021007B18802252001A607B1801225A6097
:1037A0007B1800229A607B180022DA607A18A02326
:1037B000DB051100180002F0A9FBC046BD460BB0A6
:1037C00090BDC0460010024000080050001C005090
:1037D00000040050E0800000270C000080B500AF1E
:1037E00072B6C046C046FDE780B500AF074B5A6BC6
:1037F000064B01210A435A63044B9A6B034B802109
:1038000049050A439A63C046BD4680BD0010024088
:1038100090B589B000AF78600C243B1918001423D0
:103820001A00002105F0E3FE7B681B682A4A9342D8
:103830004DD12A4B5A6B294B802189000A435A6388
:10384000264BDA6A254B01210A43DA62234BDB6AF5
:1038500001221340BB60BB683B191F221A603B1951
:1038600003225A603B1900229A603A19A023DB0513
:103870001100180002F04AFB194B1A4A1A60184B43
:1038800000225A60164B00229A60154B0022DA6023
:10389000134B80221A61124B802252005A61104B46
:1038A0008022D2009A610E4B0022DA610C4B00227A
:1038B0001A620B4B180002F0E7F8031E01D0FFF765
:1038C0008DFF7B68064ADA64054B7A689A62C046C7
:1038D000BD4609B090BDC046002401400010024022
:1038E000D80000200800024090B58BB000AF78608F
:1038F00014243B19180014231A00002105F077FE48
:103900007B681B682F4A934229D12F4BDA6A2E4BD2
:1039100002210A43DA622C4BDB6A022213403B612C
:103920003B6921007B18C0221A607B1812225A6062
:103930007B1801229A607B180322DA607B1801222F
:103940001A617B18214A1900100002F0DFFA1E4BA1
:103950009A6B1D4B802189030A439A632EE07B6892
:103960001B681B4A934229D1174BDA6A164B022176
:103970000A43DA62144BDB6A02221340FB60FB68E5
:1039800014217B18C022D2011A607B1812225A60BF
:103990007B1801229A607B180322DA607B180522CB
:1039A0001A617B18094A1900100002F0AFFA064BA1
:1039B0009A6B054B8021C9030A439A63C046BD46F2
:1039C0000BB090BD005400400010024000040050B5
:1039D0000058004080B582B000AF78607B681A68FC
:1039E0008023DB059A4206D1184B9A6B174B0121B5
:1039F0000A439A6326E07B681B68154A93420ED1FE
:103A0000124B9A6B114B10210A439A63002200213A
:103A1000112002F007F8112002F019F812E07B687B
:103A20001B680C4A93420DD1084B9A6B074B20211F
:103A30000A439A6300220021122001F0F3FF1220B2
:103A400002F005F8C046BD4602B080BD001002403D
:103A5000001000400014004080B582B000AF7860D4
:103A60007B681B68064A934205D1064B9A6B054B4F
:103A700002210A439A63C046BD4602B080BDC046DB
:103A8000000400400010024090B58BB000AF786099
:103A900014243B19180014231A00002105F0A7FD77
:103AA0007B681B68384A934233D1384B5A6B374B8B
:103AB0008021C9010A435A63344BDA6A334B01212E
:103AC0000A43DA62314BDB6A012213403B613B69F6
:103AD0003B19C022D2001A6021007B1802225A60D2
:103AE0007B1800229A607B180322DA607B1804227C
:103AF0001A617A18A023DB051100180002F006FAFB
:103B0000002200211B2001F08DFF1B2001F09FFFF0
:103B100035E07B681B681E4A934230D11B4B9A6B81
:103B20001A4B802149030A439A63184BDA6A174BF0
:103B300002210A43DA62154BDB6A02221340FB6062
:103B4000FB6814217B1818221A607B1802225A6025
:103B50007B1800229A607B180322DA607B18062209
:103B60001A617B180B4A1900100002F0CFF90022ED
:103B700000210E2001F056FF0E2001F068FFC04624
:103B8000BD460BB090BDC046003801400010024059
:103B9000005000400004005080B500AFC046FDE773
:103BA00080B500AFC046FDE780B500AFC046BD465A
:103BB00080BD80B500AFC046BD4680BD80B500AFBA
:103BC00001F0D8FAC046BD4680BD000080B500AF08
:103BD000034B180002F0BDF8C046BD4680BDC0468C
:103BE000D800002080B500AF034B180004F006FE9B
:103BF000C046BD4680BDC0463C03002080B500AF36
:103C0000054B180004F07CF8044B1B685A1C034B4E
:103C10001A60C046BD4680BD380200202004002046
:103C200080B500AF054B180004F06AF8044B1B6820
:103C30005A1C034B1A60C046BD4680BD7802002066
:103C40002404002080B500AF034B180004F0D6FD1B
:103C5000C046BD4680BDC046B802002080B586B0D3
:103C600000AF7860144A154BD31A7B617B693B61C6
:103C7000134B1B68002B02D1114B124A1A60104BD8
:103C80001A687B68D3183A699A4207D205F0B8FCE3
:103C900003000C221A6001235B4209E0084B1B68F9
:103CA000FB60074B1A687B68D218054B1A60FB68EB
:103CB0001800BD4606B080BD005000200004000082
:103CC000DC0300209805002080B500AFC046BD464B
:103CD00080BD00000D4885460D480E490E4A002360
:103CE00002E0D458C4500433C4188C42F9D30B4AB0
:103CF0000B4C002301E013600432A242FBD3FFF718
:103D0000E3FF05F083FCFFF707F9FEE70050002012
:103D1000000000206000002040A300086000002098
:103D200094050020FEE7000090B583B000AFFB1DB6
:103D300000221A70BB1D00221A70FC1D114B20219D
:103D4000180002F061FA03002370FC1D80231A02A0
:103D5000A023DB051100180002F056FA03002370BF
:103D6000FB1D1B785B005AB2BB1D1B785BB2134373
:103D70005BB2DAB2044B1A70034B1B781800BD46D5
:103D800003B090BD00040050E003002080B500AFF8
:103D900080235B0003480122190002F052FAC0465A
:103DA000BD4680BD0004005080B500AF80235B009D
:103DB00003480022190002F044FAC046BD4680BD07
:103DC0000004005080B500AF80239B00034801220F
:103DD000190002F036FAC046BD4680BD000400500E
:103DE00080B500AF80239B0003480022190002F039
:103DF00028FAC046BD4680BD0004005080B500AF23
:103E000080235B0103480122190002F01AFAC04620
:103E1000BD4680BD0004005080B500AF80235B012B
:103E200003480022190002F00CFAC046BD4680BDCE
:103E30000004005080B500AF044B0022012118009F
:103E400002F0FFF9C046BD4680BDC046001C0050D0
:103E500080B500AF044B01220121180002F0F1F9F6
:103E6000C046BD4680BDC046001C005080B500AFB6
:103E700080239B0103480122190002F0E2F9C046A9
:103E8000BD4680BD0008005080B500AF044B002245
:103E90000221180002F0D5F9C046BD4680BDC046DB
:103EA000001C005080B500AF044B01220221180015
:103EB00002F0C7F9C046BD4680BDC046001C005098
:103EC00080B500AFC046BD4680BD000080B500AFE4
:103ED000104B1B78002B02D0012B09D017E000F00B
:103EE0005BF902000C4B1A600A4B01221A700EE0BB
:103EF00000F052F90200084B1B68D31A074A93429C
:103F000004D9044B00221A7000F00AF8C046C046DB
:103F1000BD4680BDE8030020E4030020C04B030041
:103F2000B0B584B000AF1E4B1B681E49181CFCF7CF
:103F300077FC031C1B49181CFCF758FE031C0E25BC
:103F40007C19181CFCF7FEF9030023803B1D00229E
:103F50001A70134B9B881B0A9BB2DAB23B1D5A7036
:103F60000F4B9B88DAB23B1D9A707B191B88DAB223
:103F70003B1DDA700A4B5A7C3B1D1A71084B9A7C28
:103F80003B1D5A71064BDA7C3B1D9A713B1D072184
:103F9000180000F009F8C046BD4604B0B0BDC046E8
:103FA000C003002000002041B0B586B000AF7860AB
:103FB0000A00FB1C1A701423FB1800221A70172128
:103FC0007B1800221A7016243B1900221A7015253E
:103FD0007B1900221A7008203B18AA221A703B187D
:103FE00055225A703B18FA1C12789A707B180800F8
:103FF0007918FA1C097812788A181A703B1939193D
:104000003A18097812788A181A707B1900221A70E7
:1040100023E015203B181B787A68D2183B181B78D0
:10402000033311780822BA18D1543B181B787A68E8
:10403000D318197817243B193A1912788A181A706C
:104040001622BB18B9183A19097812788A181A700A
:104050003B181A783B1801321A7015203A18FB1CCD
:1040600012781B789A42D4D33B181B780333082468
:104070003A19172179180978D1543B181B78043361
:104080003A19162179180978D154FB1C1B785A1D4E
:104090003B191100180000F089F81423FB181B7855
:1040A0001800BD4606B0B0BD80B500AF00F034F8D2
:1040B000C046BD4680BD000080B586B000AF7860C8
:1040C0001223FB1800221A801023FB1800221A80EA
:1040D0000023FB600D4B180003F062FD00237B61A1
:1040E0000BE00B4B7A695200D35A99B2094B7A69AB
:1040F0005200D1527B6901337B617B69042BF0DD77
:1041000000F00AF8C046BD4606B080BDF8010020A8
:10411000F8030020EC03002080B500AF0649074BF0
:104120001422180001F0B6F9054B180003F0EEFC5C
:10413000C046BD4680BDC046F80300207C0000207C
:10414000F801002080B500AF014B1800BD4680BDCE
:10415000EC03002080B500AF034B180003F03EFDD8
:10416000C046BD4680BDC0463802002080B500AFC5
:10417000024B1B681800BD4680BDC04620040020CD
:1041800080B500AF034B180003F028FDC046BD46C4
:1041900080BDC0467802002080B500AF024B1B688E
:1041A0001800BD4680BDC0462404002090B585B0EF
:1041B00000AF78600A00BB1C1A800F23FC18BB1CE0
:1041C0001A8879680548642304F070FA03002370A4
:1041D00000231800BD4605B090BDC046B8020020BF
:1041E00090B587B004AFFB1D00221A70BB1D0022E2
:1041F0001A70FFF7BBFF0200954B1B68D31A022B06
:1042000004D9FFF7B3FF0200914B1A60FC1DA023F5
:10421000DA05904820230393A023DB050293802333
:104220000193A023DB0500934023012100F034F922
:1042300003002370BC1D874A80231901854802238F
:104240000393844B02938023DB000193814B009303
:10425000042300F021F9030023707F4B1B78FA1D23
:104260001278D31A5A1E9341DAB27C4B1B78B91DCF
:104270000978CB1A591E8B41DBB21343DBB2002BFA
:104280002ED0754BFA1D12781A70744BBA1D127825
:104290001A70734B01221A70724A734973485D2376
:1042A00000F08EF96C4B1B781A00714B110018004E
:1042B00000F086F96F4B180000F082F9694A6A49EC
:1042C0006A485E2300F07CF9644B1B781A006A4B45
:1042D0001100180000F074F9664B180000F070F936
:1042E0005F4B1B78022B0ED02CDC002B2CD0012B2B
:1042F00000D027E0FFF750FF0200604B1A60584BD8
:1043000002221A7023E0FFF747FF02005B4B1B6895
:10431000D21AFA23DB009A4218D9594B01221A709B
:104320004F4B00221A704F4A4F4950486E2300F0FD
:1043300047F9544B180000F043F94E4B180000F0B9
:104340003FF903E0C04602E0C04600E0C0464C4BE7
:104350001B78002B00D177E0494B00221A70FB1D1F
:104360001B78032B14D018DC022B0DD015DC002B8E
:1043700002D0012B04D010E0434B3C225A6111E0E3
:10438000414B78225A610DE03F4BF0225A6109E01F
:104390003D4B962252005A6104E03B4B962252005C
:1043A0005A61C046BB1D1B78062B26D89A00374B96
:1043B000D3181B689F46344B3C229A6122E0324B53
:1043C000962252009A611DE02F4B962292009A612C
:1043D00018E02D4BE12292009A6113E02A4B9622BD
:1043E000D2009A610EE0284BE122D2009A6109E0E6
:1043F000254BE12212019A6104E0234BE1221201D4
:104400009A61C046174A18491848A62300F0D8F800
:104410001D4B5A691E4B1100180000F0D1F8154BC6
:10442000180000F0CDF80F4A0F491048A72300F0FC
:10443000C7F8154B9A69174B1100180000F0C0F827
:104440000C4B180000F0BCF8C046BD4603B090BD50
:10445000300400200004005028040020290400201B
:104460002A04002024A20008149F0008189F0008B6
:10447000289F0008389F00083C9F00082C0400205B
:10448000040000204C9F0008C003002008A2000880
:104490006C9F0008949F0008F0B587B000AFF860EB
:1044A00008007A6019000A26BB19021C1A8008232A
:1044B000FB180A1C1A8014257C19BB191A88FB6882
:1044C0001100180001F0A0FE030023707B191B7877
:1044D000002B03D17B1901221A7003E01423FB186F
:1044E00000221A7015257C190823FB181A887B688E
:1044F0001100180001F088FE030023707B191B785F
:10450000002B03D17B1901221A7003E01523FB183D
:1045100000221A7016257C192C2308229B18DB19FF
:104520001A883B6B1100180001F06EFE0300237027
:104530007B191B78002B03D17B1901221A7003E031
:104540001623FB1800221A7017257C193423082221
:104550009B18DB191A88BB6B1100180001F054FE80
:10456000030023707B191B78002B03D17B190122D8
:104570001A7003E01723FB1800221A701423FB188B
:104580001B78DB005AB21523FB181B789B005BB22B
:1045900013435AB21623FB181B785B005BB213431C
:1045A0005AB21723FB181B785BB213435AB213217C
:1045B0007B181A707B181B781800BD4607B0F0BD39
:1045C0000FB480B5194FBD4400AF194B8222920041
:1045D0009B18DB1900221A600433FE22FF320021EF
:1045E000180005F004F885239B00FB183B603A682F
:1045F00084239B00FB1819683B1D180004F0D8FFAA
:1046000002000C497B181A807B181A88391D0A4849
:10461000642304F04BF801235B421800BD4682235B
:104620009B009D4480BC08BC04B01847F8FDFFFF08
:10463000FCFDFFFF060200003C03002080B582B0B5
:1046400000AF7860034B7A681A60C046BD4602B07E
:1046500080BDC0463404002090B585B002AF7B1DFC
:10466000E7221A70FB1D00221A70174B18687A1D7A
:10467000FA239B0000930123802101F095FE124B49
:104680001868FC1DBA1DFA239B00009301238021AA
:1046900001F092FF03002370FB1D1B78012B0DD14D
:1046A0000A4A0B490B482723FFF78AFF0A4B1800D9
:1046B000FFF786FF094B1800FFF782FFBB1D1B7831
:1046C0001800BD4603B090BD340400203CA2000891
:1046D000BC9F0008C09F0008D09F0008E89F00080A
:1046E000F0B587B002AF0200FB1D1A700C26BB1993
:1046F000204A12881A800222002199540F257B1922
:1047000000221A701C4B1868FA1DFA239B000093B4
:104710000123802101F048FE174B18687C19BA1953
:10472000FA239B0000930323802101F045FF03003F
:1047300023707B191B78012B0DD1104A10491148A9
:104740003623FFF73DFF104B1800FFF739FF0F4BE3
:104750001800FFF735FF0C217B181B781B021AB2DB
:104760007B185B781BB213431BB29BB21800BD468B
:1047700005B0F0BDEC9F00083404002050A20008F2
:10478000BC9F0008C09F0008D09F0008E89F000859
:1047900080B584B000AF0200FB1D1A70FB1D1B78B2
:1047A000002B01D0E32200E0F3220F217B181A70C6
:1047B0007B181B781800FFF793FF03001800FEF723
:1047C00087FA00220E4BFDF705F902000B001000DE
:1047D00019000C4A0C4BFDF717FC02000B001000EF
:1047E00019000A4A0A4BFDF7D7FE02000B00100021
:1047F0001900FEF7E3FA031C181CBD4604B080BD87
:104800000000F040D7A3703D0AF76540CDCCCCCC7A
:10481000CC6C474080B584B000AF0200FB1D1A701D
:10482000FB1D1B78002B01D0E52200E0F5220F21B3
:104830007B181A707B181B781800FFF751FF0300D4
:104840001800FEF745FA00220E4BFDF7C3F80200F0
:104850000B001000190000220B4BFDF7D5FB0200E6
:104860000B00100019000022084BFDF795FE020016
:104870000B0010001900FEF7A1FA031C181CBD461E
:1048800004B080BD0000F04000405F4000001840D0
:10489000B0B586B002AF0200FB1D1A700F257C195F
:1048A000FFF7DAFE0300237029007B181B785BB248
:1048B0007E2213405AB2FB1D1B785BB213435AB2DF
:1048C0007B181A700C243B19E6221A703B197A18CF
:1048D00012785A70064B18683A19FA239B00009315
:1048E0000223802101F060FDC046BD4604B0B0BD8A
:1048F0003404002080B582B000AF78607868FEF79D
:1049000015FA0B4A0B4BFDF77FFB02000B00100062
:1049100019000022084BFCF7F9FC02000B00100004
:104920001900FEF74BFA031C181CBD4602B080BDEF
:10493000CDCCCCCCCCCCFC3F0000404080B582B08C
:1049400000AF786004497868FBF7E0FD031C181C91
:10495000BD4602B080BDC0460080884380B582B0AD
:1049600000AF78607868FCF723FC03001800BD46B0
:1049700002B080BD80B584B000AF786039607B68DC
:10498000181CFFF7EBFF03001800FCF731FC031CB9
:10499000191C7868FCF768FA031CFB603B68190077
:1049A0000A2000F012F803001800FCF76DFC031C4D
:1049B000F968181CFCF71AF9031C181CFBF7C2FC59
:1049C00003001800BD4604B080BD80B584B000AFC0
:1049D000786039607B68FB600123BB6006E0FB68A0
:1049E0007A685343FB60BB680133BB60BA683B68BD
:1049F0009A42F4D3FB681800BD4604B080BD0000A5
:104A000080B500AFFFF75CFAFFF7A4FBFFF7B8FB38
:104A1000064B1800FFF712FE0020FFF739FF00F0E9
:104A20003FFAFFF741FBC046BD4680BD2001002094
:104A300080B500AF0C4B00221A740B4B00225A7445
:104A4000094B00229A74084B0022DA74064B0122AB
:104A5000DA73054B00229A80034B1A7C034B1A70C1
:104A6000C046BD4680BDC046C003002038040020BB
:104A700080B500AF00F004F8C046BD4680BD000020
:104A800080B500AF00F0EAFA03001A003D4B9A80AF
:104A9000FFF7A6FB00F08CF800F0D2FA00F0B6F9B0
:104AA00000F0E2F9FFF762FB0200374B1B68D31AF4
:104AB000022B62D9FFF75AFB0200334B1A6000F059
:104AC00037FA304BDB7B032B35D043DC022B23D072
:104AD00040DC002B02D0012B0FD03BE02B4A2C49AD
:104AE0002C486123FFF76CFD2B4B1800FFF768FD86
:104AF0002A4B1800FFF764FD3FE0244A244925486B
:104B00006423FFF75DFD264B1800FFF759FD234B8B
:104B10001800FFF755FD30E01C4A1D491D4867236A
:104B2000FFF74EFD1F4B1800FFF74AFD1B4B180007
:104B3000FFF746FD21E0154A154916486A23FFF79D
:104B40003FFD194B1800FFF73BFD144B1800FFF712
:104B500037FD12E00D4A0E490E486D23FFF730FD78
:104B6000084BDB7B1A00114B11001800FFF728FDE2
:104B70000A4B1800FFF724FDC046FFF7A7F9C0460F
:104B8000BD4680BDC00300203C04002060A2000898
:104B9000F09F0008F49F000804A0000818A0000877
:104BA0001CA000082CA000083CA000084CA0000895
:104BB00080B500AF234B9B88234A934203D8214BF7
:104BC00001221A740CE01F4B9B88204A934203D9A0
:104BD0001C4B00221A7403E01A4B1A7C194B1A74EE
:104BE000184B1A7C1A4B1B789A4205D0154B1A7C2D
:104BF000174B1A7000F000F9124B1B7C002B1CD1D4
:104C0000104B1B681349181CFBF726FB031E06D02C
:104C10000C4B01229A740B4B0122DA740DE0094B04
:104C20001B680C49181CFBF717FB031E05D0054B2E
:104C300000229A74034B0022DA7400F00DF8C0468B
:104C4000BD4680BDC0030020EB2C0000D430000026
:104C5000380400200000904080B500AF5C4B1B7C06
:104C6000012B66D15B4B1B78032B43D000DDA1E009
:104C7000022B25D000DD9DE0002B02D0012B0CD0B3
:104C800098E0FFF773FA0200534B1A60514B012270
:104C90001A704F4B00225A7497E0FFF767FA020030
:104CA0004D4B1B68D31A4D4A934200D884E0FFF75E
:104CB0005DFA0200484B1A60464B02221A707BE0F4
:104CC000474A48494848D223FFF77AFC474B180027
:104CD000FFF776FC464B1800FFF772FC3C4B0122B5
:104CE0005A74FFF743FA02003B4B1A60394B032218
:104CF0001A706AE0FFF73AFA0200374B1B68D21AC3
:104D0000334B5B699A4259D9314B00225A74314B6B
:104D100000221A70324A33493348DC23FFF750FC33
:104D2000344B1800FFF74CFC314B1800FFF748FCE0
:104D300044E0274B1B7C002B47D1264B1B78022BD2
:104D400027D03DDC002B02D0012B0CD038E0204BCB
:104D500000225A74FFF70AFA02001F4B1A601D4B1B
:104D600001221A7031E0FFF701FA02001A4B1B68AA
:104D7000D21A174B9B699A4224D9154B01225A74B7
:104D8000144B02221A70FFF7F1F90200124B1A605D
:104D900018E0FFF7EBF902000F4B1B68D21A0C4B1F
:104DA0005B699A4210D90A4B00225A74094B0022BF
:104DB0001A7009E0C04608E0C04606E0C04604E0BC
:104DC000C04602E0C04600E0C046C046BD4680BDC9
:104DD000C00300204404002040040020C04B030016
:104DE00070A20008F09F0008F49F000870A000085F
:104DF00018A000089CA0000880B500AF024B00225C
:104E00001A70C046BD4680BD4404002080B500AF86
:104E1000144B5B7C012B02D1FEF7B8FF05E0114B70
:104E20005B7C002B01D1FEF7BFFF0E4B9B7C012B5F
:104E300002D1FEF7C7FF05E00A4B9B7C002B01D196
:104E4000FEF7CEFF074BDB7C012B02D1FEF7D6FF2E
:104E500005E0044BDB7C002B01D1FEF7DDFFC046F3
:104E6000BD4680BDC003002080B500AF0B4B1B7C4E
:104E7000002B06D1FEF7DEFFFFF714F8FEF7F6FF72
:104E800009E0064B1B7C012B05D1FEF7FDFFFEF769
:104E9000EDFFFEF7DDFFC046BD4680BDC00300202C
:104EA00090B587B000AF3B0000221A600433102297
:104EB0000021180004F09BFB0120FFF769FC031C94
:104EC0007B61144B7A691A607B69181CFFF746FDF9
:104ED00004007B690121181CFFF74CFD03000E49FB
:104EE0003800220004F02EFBA2235B000B4A0C4981
:104EF0000C48FFF765FB3A000B4B11001800FFF759
:104F00005FFB0A4B1800FFF75BFBC046BD4607B0CE
:104F100090BDC046C0030020CCA000088CA20008B1
:104F2000D8A00008F49F0008DCA0000818A0000822
:104F3000F0B5DE4657464E464546E0B5A5B006AF4D
:104F40003B1D00221A60043360220021180004F087
:104F50004EFB0120FFF71CFC031C7B67324B7A6F72
:104F60001A607B6F181CFFF7C5FC031C3B677B6F47
:104F7000181CFFF7E3FC031CFB660120FFF74AFC4B
:104F8000031CBB667B6F181CFFF7E8FC82467B6F37
:104F90000121181CFFF7EEFC83463B6F181CFFF73E
:104FA000DDFC04003B6F0121181CFFF7E3FC05004A
:104FB000FB6E181CFFF7D2FC0600FB6E0121181CCB
:104FC000FFF7D8FC8046BB6E181CFFF7C7FC814674
:104FD000BB6E0121181CFFF7CDFC03001349381DDF
:104FE00005934B4604934346039302960195009420
:104FF0005B46524604F0A6FAAF235B000C4A0D490B
:105000000D48FFF7DDFA3B1D1800FFF7D9FA0B4BEF
:105010001800FFF7D5FAC046BD461FB0F0BCBB462E
:10502000B246A946A046F0BDC0030020F8A0000883
:10503000A4A20008D8A00008F49F000818A0000847
:1050400080B500AFFEF770FE03001A00024BDA7362
:10505000C046BD4680BDC046C003002090B583B0A9
:1050600000AF00237B60BB1C00221A80FFF76AF8A8
:1050700003001B881800FCF7BBF8031C1049181C20
:10508000FBF7B4FD031C0F49181CFBF7AFFD031C15
:105090007B600D497868FBF7C3FB031C0A49181CA9
:1050A000FBF7A4FD031CBC1C181CFBF74BF9030009
:1050B0002380BB1C1B881800BD4603B090BDC046B2
:1050C000E54C4E3F000030410000204180B582B0E9
:1050D00000AFFB1D00221A700B4B1A680A4B4021CF
:1050E0000A431A60002000F011F8031E03D0FB1DD4
:1050F00001221A7001E0FEF777FBFB1D1B781800F8
:10510000BD4602B080BDC0460020024090B583B0CD
:1051100000AF7860144B1C68144B1B781900FA23FD
:105120009800FAF7FBFF030019002000FAF7F6FFDA
:105130000300180000F09BFC031E01D001230FE0C8
:105140007B68032B0BD8796801235B42002218008F
:1051500000F068FC064B7A681A60002300E0012327
:105160001800BD4603B090BD000000200C000020D8
:105170000800002080B500AF054B1B781A00054BD6
:105180001B68D218034B1A60C046BD4680BDC0469E
:105190000C0000204804002080B500AF024B1B68C3
:1051A0001800BD4680BDC0464804002080B582B0CE
:1051B00000AF78607B68002B01D1012359E17B6847
:1051C0005B6D002B0AD17B6800229A657B685022B8
:1051D000002199547B681800FEF71AFB7B685B6D11
:1051E00010221340102B05D07B681B689B6804229B
:1051F00013400BD07B685B6D10221A437B685A65A5
:105200007B68502200219954012332E17B685B6D59
:105210009A4A134002221A437B685A657B681B68CE
:105220009B6803221340012B08D17B681B681B6815
:1052300001221340012B01D1012300E00023002BA8
:1052400049D17B685A68C0231B069A420BD07B6801
:105250005A688023DB059A4205D07B685A68802310
:105260001B069A4211D17B681B681A697B681B6810
:10527000920092081A617B681B6819697B685A68FA
:105280007B681B680A431A6114E07B681B681A6913
:105290007B681B68920092081A61794B1A68784BF8
:1052A00078490A401A60764B19687B685A68744BD3
:1052B0000A431A607B681B68DA687B681B681821E0
:1052C0008A43DA607B681B68D9687B689A687B6868
:1052D0001B680A43DA606A4B1A68694B6A490A40DC
:1052E0001A60674B19687B685B6B5A06644B0A430C
:1052F0001A607B681B689A6880235B05134008D19D
:105300007B681B689A687B681B68802149050A4393
:105310009A607B681B68DA687B681B685B490A4097
:10532000DA607B681B68D9687B68DA687B681B6910
:10533000022B01D1042300E000231A437B682020C4
:105340001B5C5B031A437B682C201B5C5B001A43CD
:105350007B681B6B1A437B689B699B031A437B68C2
:10536000DB69DB031A437B681B680A43DA607B68EE
:105370005A6AC223FF339A420BD07B681B68D968F4
:105380007B685A6A7B689B6A1A437B681B680A437E
:10539000DA607B6821229B5C012B1AD17B6820227A
:1053A0009B5C002B09D17B681B68DA687B681B68F3
:1053B000802149020A43DA600BE07B685B6D2022A2
:1053C0001A437B685A657B689B6D01221A437B6890
:1053D0009A657B68DB6B012B1FD17B681B681A69A0
:1053E0007B681B682A490A401A617B681B68196937
:1053F0007B681A6C7B685B6C1A437B689B6C1A43F6
:105400007B681B680A431A617B681B681A697B68A2
:105410001B6801210A431A610EE07B681B681B6947
:1054200001221340012B07D17B681B681A697B6836
:105430001B6801218A431A617B681B685A697B6873
:105440001B6807218A435A617B681B6859697B681E
:105450009A6B7B681B680A435A617B6800229A65D5
:105460007B685B6D0322934301221A437B685A6574
:1054700000231800BD4602B080BDC046FDFEFFFF00
:1054800008270140FFFFC3FFFFFFFFFD1902FEFFDA
:1054900003FCFFFF90B587B000AFF860B9607A6099
:1054A0001723FB1800221A70FB681B689B680422F4
:1054B00013405ED1FB6850229B5C012B01D102237B
:1054C0005EE0FB68502201219954FB681B68DA6892
:1054D000FB681B6801210A43DA60FB68DB69012B6A
:1054E00007D01723FC18FB68180000F0EBF8030046
:1054F00023701723FB181B78002B3ED1FB685B6DD4
:10550000214A1340802252001A43FB685A65FB6807
:1055100000229A65FB68502200219954FB68DB6CDD
:105520001A4ADA62FB68DB6C194A1A63FB68DB6CA7
:10553000184A5A63FB681B681C221A60FB681B68C8
:105540005A68FB681B6810210A435A60FB68D86CD4
:10555000FB681B6840331900BA687B6800F00CFBDD
:10556000FB681B689A68FB681B6804210A439A6001
:1055700003E01723FB1802221A701723FB181B786D
:105580001800BD4607B090BDFEF0FFFF855700082C
:10559000395800085758000880B582B000AF7860CD
:1055A000C046BD4602B080BD80B582B000AF786015
:1055B000C046BD4602B080BD80B582B000AF786005
:1055C00039607B6850229B5C012B01D102236CE087
:1055D0007B685022012199547B681B689B680422D8
:1055E00013400BD07B685B6D20221A437B685A65A1
:1055F0007B68502200219954012356E03B685B6888
:105600002C4A934228D07B681B68996A3B681B68C8
:105610005B035A0B7B681B680A439A623B681A68F3
:105620008023DB02134009D0234B1A68224B8021D0
:1056300009040A431A600A2000F028F93B681A6836
:1056400080239B0213402BD01B4B1A681A4B8021DE
:10565000C9030A431A6023E07B681B689A6A3B68A7
:105660001B685B035B0BD9437B681B680A409A622B
:105670003B681A688023DB02134005D00E4B1A6882
:105680000D4B0E490A401A603B681A6880239B0242
:10569000134005D0084B1A68074B09490A401A60A5
:1056A0007B6850220021995400231800BD4602B0A7
:1056B00080BDC0460110000008270140FFFF7FFFAA
:1056C000FFFFBFFF80B584B000AF78600023FB60B0
:1056D0007B681B689B6803221340012B08D17B6801
:1056E0001B681B6801221340012B01D1012300E03C
:1056F0000023002B3FD17B681B689B68204A134026
:105700000DD07B685B6D10221A437B685A657B68FD
:105710009B6D01221A437B689A6501232CE07B680C
:105720001B689A687B681B6801210A439A60012004
:1057300000F0ACF8FFF730FD0300FB6014E0FFF76A
:105740002BFD0200FB68D31A0A2B0DD97B685B6D19
:1057500010221A437B685A657B689B6D01221A43AD
:105760007B689A65012307E07B681B681B68012240
:105770001340012BE3D100231800BD4604B080BDC7
:105780001700008080B584B000AF78607B689B6AAA
:10579000FB60FB685B6D5022134041D1FB685B6D81
:1057A000802292001A43FB685A65FB681B68DA681E
:1057B000C0231B0113402ED1FB6820229B5C002BD1
:1057C00029D1FB681B681B6808221340082B22D1D3
:1057D000FB681B689B680422134010D1FB681B68A0
:1057E0005A68FB681B680C218A435A60FB685B6D32
:1057F000104A134001221A43FB685A650BE0FB680C
:105800005B6D20221A43FB685A65FB689B6D012281
:105810001A43FB689A65FB681800FEF74DFC05E02B
:10582000FB68DB6C5B6B7A6810009847C046BD462E
:1058300004B080BDFEFEFFFF80B584B000AF78608D
:105840007B689B6AFB60FB681800FFF7A5FEC046FB
:10585000BD4604B080BD80B584B000AF78607B6881
:105860009B6AFB60FB685B6D40221A43FB685A65CC
:10587000FB689B6D04221A43FB689A65FB6818005D
:10588000FFF792FEC046BD4604B080BD80B584B02F
:1058900000AF78600B4B1B680B491800FAF73EFC11
:1058A00003001A007B685343FB6002E0FB68013B86
:1058B000FB60FB68002BF9D1C046C046BD4604B072
:1058C00080BDC0460000002040420F0080B582B07D
:1058D00000AF0200FB1D1A70FB1D1B787F2B09D83F
:1058E000FB1D1B781A001F231A40044B0121914015
:1058F0000A001A60C046BD4602B080BD00E100E06B
:1059000090B583B000AF02003960FB1D1A70FB1D1B
:105910001B787F2B28D82F4AFB1D1B785BB29B0876
:10592000C0339B009B58FA1D1278110003220A40D5
:10593000D200FF2191400A00D2431A4011003B6877
:105940009B01FF221A40FB1D1B7818000323034014
:10595000DB009A401F48FB1D1B785BB29B080A4383
:10596000C0339B001A5031E01B4AFB1D1B78190005
:105970000F230B40083B9B0806339B00D3180433CE
:105980001B68FA1D1278110003220A40D200FF2181
:1059900091400A00D2431A4011003B689B01FF224C
:1059A0001A40FB1D1B78180003230340DB009A40BC
:1059B0000948FB1D1B781C000F232340083B9B0854
:1059C0000A4306339B00C31804331A60C046BD4621
:1059D00003B090BD00E100E000ED00E080B582B0D2
:1059E00000AF78607B685A1E80235B049A4201D323
:1059F000012310E00A4B7A68013A5A6001235B42A6
:105A000003211800FFF77CFF054B00229A60044B2E
:105A100007221A6000231800BD4602B080BDC046B0
:105A200010E000E080B584B000AFB9607A600F216B
:105A30007B18021C1A70BA687B181B785BB21100C5
:105A40001800FFF75DFFC046BD4604B080BD80B5BD
:105A500082B000AF0200FB1D1A70FB1D1B785BB209
:105A60001800FFF733FFC046BD4602B080BD80B5C9
:105A700082B000AF78607B681800FFF7AFFF0300CB
:105A80001800BD4602B080BD80B584B000AF78601C
:105A90007B68002B01D1012361E07B681B68324ADF
:105AA0009446634414211800FAF738FB03009A0067
:105AB0007B685A647B682D4A1A647B682522022120
:105AC00099547B681B681B68FB60FB68284A13407D
:105AD000FB607B689A687B68DB681A437B681B699C
